{
  "contractName": "db",
  "abi": [
    {
      "constant": false,
      "inputs": [
        {
          "name": "str",
          "type": "string"
        }
      ],
      "name": "set",
      "outputs": [],
      "payable": false,
      "stateMutability": "nonpayable",
      "type": "function"
    },
    {
      "constant": false,
      "inputs": [
        {
          "name": "addr",
          "type": "address"
        }
      ],
      "name": "get",
      "outputs": [
        {
          "name": "",
          "type": "string"
        }
      ],
      "payable": false,
      "stateMutability": "nonpayable",
      "type": "function"
    },
    {
      "inputs": [],
      "payable": false,
      "stateMutability": "nonpayable",
      "type": "constructor"
    }
  ],
  "bytecode": "0x6060604052341561000f57600080fd5b336000806101000a81548173ffffffffffffffffffffffffffffffffffffffff021916908373ffffffffffffffffffffffffffffffffffffffff1602179055506103838061005e6000396000f30060606040526004361061004c576000357c0100000000000000000000000000000000000000000000000000000000900463ffffffff1680634ed3885e14610051578063c2bc2efc146100ae575b600080fd5b341561005c57600080fd5b6100ac600480803590602001908201803590602001908080601f01602080910402602001604051908101604052809392919081815260200183838082843782019150505050505091905050610160565b005b34156100b957600080fd5b6100e5600480803573ffffffffffffffffffffffffffffffffffffffff169060200190919050506101b7565b6040518080602001828103825283818151815260200191508051906020019080838360005b8381101561012557808201518184015260208101905061010a565b50505050905090810190601f1680156101525780820380516001836020036101000a031916815260200191505b509250505060405180910390f35b80600160003373ffffffffffffffffffffffffffffffffffffffff1673ffffffffffffffffffffffffffffffffffffffff16815260200190815260200160002090805190602001906101b392919061029e565b5050565b6101bf61031e565b600160008373ffffffffffffffffffffffffffffffffffffffff1673ffffffffffffffffffffffffffffffffffffffff1681526020019081526020016000208054600181600116156101000203166002900480601f0160208091040260200160405190810160405280929190818152602001828054600181600116156101000203166002900480156102925780601f1061026757610100808354040283529160200191610292565b820191906000526020600020905b81548152906001019060200180831161027557829003601f168201915b50505050509050919050565b828054600181600116156101000203166002900490600052602060002090601f016020900481019282601f106102df57805160ff191683800117855561030d565b8280016001018555821561030d579182015b8281111561030c5782518255916020019190600101906102f1565b5b50905061031a9190610332565b5090565b602060405190810160405280600081525090565b61035491905b80821115610350576000816000905550600101610338565b5090565b905600a165627a7a72305820ee3a0dfc4e52560512247eac358747b370c2c13c7d0c1a20d4628c25b8518fde0029",
  "source": "pragma solidity ^0.4.18;\r\n\r\ncontract db {\r\n    // owner of contract itself\r\n    address private owner;\r\n\r\n    // data holds the string data for a user\r\n    mapping (address => string) data;\r\n\r\n    // access holds access grants to data\r\n    mapping (address => address[]) access;\r\n\r\n    // db is the constructor\r\n    function db() {\r\n        owner = msg.sender;\r\n    }\r\n\r\n    // get retrieves information for the specified address\r\n    function get(address addr) returns (string) {\r\n        return data[addr];\r\n        /*\r\n        // If requesting own information\r\n        if (addr == msg.sender) {\r\n            return data[addr];\r\n        }\r\n\r\n        // Otherwise check if user has given them share access\r\n        for (uint i = 0; i < access[addr].length; i++) {\r\n            // Check if given access\r\n            if (access[addr][i] == msg.sender) {\r\n                // Return info\r\n                return data[addr];\r\n            }\r\n        }\r\n\r\n        // If not found in access list, don't have permissions\r\n        require(false);\r\n        */\r\n    }\r\n\r\n    // set sets a data item\r\n    function set(string str) {\r\n        // Set\r\n        data[msg.sender] = str;\r\n    }\r\n}\r\n",
  "sourcePath": "C:\\Users\\rudyt\\Documents\\Github\\Seshat\\contracts\\db.sol",
  "compiler": {
    "name": "solc",
    "version": "0.4.18+commit.9cf6e910.Emscripten.clang"
  },
  "schemaVersion": "1.0.1",
  "updatedAt": "2018-01-21T02:39:01.730Z"
}