{
  "contractName": "db",
  "abi": [
    {
      "constant": false,
      "inputs": [
        {
          "name": "addr",
          "type": "address"
        },
        {
          "name": "category",
          "type": "string"
        }
      ],
      "name": "grantEdit",
      "outputs": [],
      "payable": false,
      "stateMutability": "nonpayable",
      "type": "function"
    },
    {
      "constant": false,
      "inputs": [],
      "name": "kill",
      "outputs": [],
      "payable": false,
      "stateMutability": "nonpayable",
      "type": "function"
    },
    {
      "constant": false,
      "inputs": [
        {
          "name": "addr",
          "type": "address"
        },
        {
          "name": "category",
          "type": "string"
        }
      ],
      "name": "revokeEdit",
      "outputs": [],
      "payable": false,
      "stateMutability": "nonpayable",
      "type": "function"
    },
    {
      "constant": true,
      "inputs": [
        {
          "name": "datOwner",
          "type": "address"
        },
        {
          "name": "viewer",
          "type": "address"
        }
      ],
      "name": "canView",
      "outputs": [
        {
          "name": "",
          "type": "bool"
        }
      ],
      "payable": false,
      "stateMutability": "view",
      "type": "function"
    },
    {
      "constant": false,
      "inputs": [
        {
          "name": "addr",
          "type": "address"
        }
      ],
      "name": "grantView",
      "outputs": [],
      "payable": false,
      "stateMutability": "nonpayable",
      "type": "function"
    },
    {
      "constant": true,
      "inputs": [
        {
          "name": "datOwner",
          "type": "address"
        },
        {
          "name": "editor",
          "type": "address"
        },
        {
          "name": "category",
          "type": "string"
        }
      ],
      "name": "canEdit",
      "outputs": [
        {
          "name": "",
          "type": "bool"
        }
      ],
      "payable": false,
      "stateMutability": "view",
      "type": "function"
    },
    {
      "constant": false,
      "inputs": [
        {
          "name": "addr",
          "type": "address"
        },
        {
          "name": "category",
          "type": "string"
        },
        {
          "name": "blob",
          "type": "string"
        }
      ],
      "name": "set",
      "outputs": [
        {
          "name": "",
          "type": "string"
        }
      ],
      "payable": false,
      "stateMutability": "nonpayable",
      "type": "function"
    },
    {
      "constant": false,
      "inputs": [
        {
          "name": "addr",
          "type": "address"
        }
      ],
      "name": "revokeView",
      "outputs": [],
      "payable": false,
      "stateMutability": "nonpayable",
      "type": "function"
    },
    {
      "constant": true,
      "inputs": [
        {
          "name": "addr",
          "type": "address"
        },
        {
          "name": "category",
          "type": "string"
        }
      ],
      "name": "get",
      "outputs": [
        {
          "name": "",
          "type": "string"
        }
      ],
      "payable": false,
      "stateMutability": "view",
      "type": "function"
    },
    {
      "inputs": [],
      "payable": false,
      "stateMutability": "nonpayable",
      "type": "constructor"
    }
  ],
  "bytecode": "0x6060604052341561000f57600080fd5b336000806101000a81548173ffffffffffffffffffffffffffffffffffffffff021916908373ffffffffffffffffffffffffffffffffffffffff1602179055506113678061005e6000396000f300606060405260043610610099576000357c0100000000000000000000000000000000000000000000000000000000900463ffffffff168063020d3d051461009e57806341c0e1b51461011a5780636b583d221461012f57806395e1a1d5146101ab5780639b79d3311461021b5780639f2dfe4214610254578063d2c0e03214610307578063f1f03fda1461043f578063fc2525ab14610478575b600080fd5b34156100a957600080fd5b610118600480803573ffffffffffffffffffffffffffffffffffffffff1690602001909190803590602001908201803590602001908080601f0160208091040260200160405190810160405280939291908181526020018383808284378201915050505050509190505061056d565b005b341561012557600080fd5b61012d61066f565b005b341561013a57600080fd5b6101a9600480803573ffffffffffffffffffffffffffffffffffffffff1690602001909190803590602001908201803590602001908080601f01602080910402602001604051908101604052809392919081815260200183838082843782019150505050505091905050610780565b005b34156101b657600080fd5b610201600480803573ffffffffffffffffffffffffffffffffffffffff1690602001909190803573ffffffffffffffffffffffffffffffffffffffff16906020019091905050610879565b604051808215151515815260200191505060405180910390f35b341561022657600080fd5b610252600480803573ffffffffffffffffffffffffffffffffffffffff169060200190919050506109d7565b005b341561025f57600080fd5b6102ed600480803573ffffffffffffffffffffffffffffffffffffffff1690602001909190803573ffffffffffffffffffffffffffffffffffffffff1690602001909190803590602001908201803590602001908080601f01602080910402602001604051908101604052809392919081815260200183838082843782019150505050505091905050610a6f565b604051808215151515815260200191505060405180910390f35b341561031257600080fd5b6103c4600480803573ffffffffffffffffffffffffffffffffffffffff1690602001909190803590602001908201803590602001908080601f0160208091040260200160405190810160405280939291908181526020018383808284378201915050505050509190803590602001908201803590602001908080601f01602080910402602001604051908101604052809392919081815260200183838082843782019150505050505091905050610c37565b6040518080602001828103825283818151815260200191508051906020019080838360005b838110156104045780820151818401526020810190506103e9565b50505050905090810190601f1680156104315780820380516001836020036101000a031916815260200191505b509250505060405180910390f35b341561044a57600080fd5b610476600480803573ffffffffffffffffffffffffffffffffffffffff16906020019091905050610f23565b005b341561048357600080fd5b6104f2600480803573ffffffffffffffffffffffffffffffffffffffff1690602001909190803590602001908201803590602001908080601f01602080910402602001604051908101604052809392919081815260200183838082843782019150505050505091905050610fb2565b6040518080602001828103825283818151815260200191508051906020019080838360005b83811015610532578082015181840152602081019050610517565b50505050905090810190601f16801561055f5780820380516001836020036101000a031916815260200191505b509250505060405180910390f35b6001600260003373ffffffffffffffffffffffffffffffffffffffff1673ffffffffffffffffffffffffffffffffffffffff16815260200190815260200160002060008473ffffffffffffffffffffffffffffffffffffffff1673ffffffffffffffffffffffffffffffffffffffff168152602001908152602001600020826040518082805190602001908083835b60208310151561062157805182526020820191506020810190506020830392506105fc565b6001836020036101000a038019825116818451168082178552505050505050905001915050908152602001604051809103902060006101000a81548160ff0219169083151502179055505050565b6000809054906101000a900473ffffffffffffffffffffffffffffffffffffffff16604051808273ffffffffffffffffffffffffffffffffffffffff1673ffffffffffffffffffffffffffffffffffffffff166c0100000000000000000000000002815260140191505060405180910390206000191633604051808273ffffffffffffffffffffffffffffffffffffffff1673ffffffffffffffffffffffffffffffffffffffff166c0100000000000000000000000002815260140191505060405180910390206000191614151561074657600080fd5b6000809054906101000a900473ffffffffffffffffffffffffffffffffffffffff1673ffffffffffffffffffffffffffffffffffffffff16ff5b600260003373ffffffffffffffffffffffffffffffffffffffff1673ffffffffffffffffffffffffffffffffffffffff16815260200190815260200160002060008373ffffffffffffffffffffffffffffffffffffffff1673ffffffffffffffffffffffffffffffffffffffff168152602001908152602001600020816040518082805190602001908083835b602083101515610832578051825260208201915060208101905060208303925061080d565b6001836020036101000a038019825116818451168082178552505050505050905001915050908152602001604051809103902060006101000a81549060ff02191690555050565b600081604051808273ffffffffffffffffffffffffffffffffffffffff1673ffffffffffffffffffffffffffffffffffffffff166c0100000000000000000000000002815260140191505060405180910390206000191683604051808273ffffffffffffffffffffffffffffffffffffffff1673ffffffffffffffffffffffffffffffffffffffff166c01000000000000000000000000028152601401915050604051809103902060001916141561093457600190506109d1565b600360008473ffffffffffffffffffffffffffffffffffffffff1673ffffffffffffffffffffffffffffffffffffffff16815260200190815260200160002060008373ffffffffffffffffffffffffffffffffffffffff1673ffffffffffffffffffffffffffffffffffffffff16815260200190815260200160002060009054906101000a900460ff16156109cc57600190506109d1565b600090505b92915050565b6001600360003373ffffffffffffffffffffffffffffffffffffffff1673ffffffffffffffffffffffffffffffffffffffff16815260200190815260200160002060008373ffffffffffffffffffffffffffffffffffffffff1673ffffffffffffffffffffffffffffffffffffffff16815260200190815260200160002060006101000a81548160ff02191690831515021790555050565b600082604051808273ffffffffffffffffffffffffffffffffffffffff1673ffffffffffffffffffffffffffffffffffffffff166c0100000000000000000000000002815260140191505060405180910390206000191684604051808273ffffffffffffffffffffffffffffffffffffffff1673ffffffffffffffffffffffffffffffffffffffff166c010000000000000000000000000281526014019150506040518091039020600019161415610b2a5760019050610c30565b600260008573ffffffffffffffffffffffffffffffffffffffff1673ffffffffffffffffffffffffffffffffffffffff16815260200190815260200160002060008473ffffffffffffffffffffffffffffffffffffffff1673ffffffffffffffffffffffffffffffffffffffff168152602001908152602001600020826040518082805190602001908083835b602083101515610bdc5780518252602082019150602081019050602083039250610bb7565b6001836020036101000a038019825116818451168082178552505050505050905001915050908152602001604051809103902060009054906101000a900460ff1615610c2b5760019050610c30565b600090505b9392505050565b610c3f611282565b33604051808273ffffffffffffffffffffffffffffffffffffffff1673ffffffffffffffffffffffffffffffffffffffff166c0100000000000000000000000002815260140191505060405180910390206000191684604051808273ffffffffffffffffffffffffffffffffffffffff1673ffffffffffffffffffffffffffffffffffffffff166c010000000000000000000000000281526014019150506040518091039020600019161480610de45750600260008573ffffffffffffffffffffffffffffffffffffffff1673ffffffffffffffffffffffffffffffffffffffff16815260200190815260200160002060003373ffffffffffffffffffffffffffffffffffffffff1673ffffffffffffffffffffffffffffffffffffffff168152602001908152602001600020836040518082805190602001908083835b602083101515610da25780518252602082019150602081019050602083039250610d7d565b6001836020036101000a038019825116818451168082178552505050505050905001915050908152602001604051809103902060009054906101000a900460ff165b15610ee35781600160003373ffffffffffffffffffffffffffffffffffffffff1673ffffffffffffffffffffffffffffffffffffffff168152602001908152602001600020846040518082805190602001908083835b602083101515610e5f5780518252602082019150602081019050602083039250610e3a565b6001836020036101000a03801982511681845116808217855250505050505090500191505090815260200160405180910390209080519060200190610ea5929190611296565b506040805190810160405280600781526020017f53554343455353000000000000000000000000000000000000000000000000008152509050610f1c565b6040805190810160405280600c81526020017f554e415554484f52495a4544000000000000000000000000000000000000000081525090505b9392505050565b600360003373ffffffffffffffffffffffffffffffffffffffff1673ffffffffffffffffffffffffffffffffffffffff16815260200190815260200160002060008273ffffffffffffffffffffffffffffffffffffffff1673ffffffffffffffffffffffffffffffffffffffff16815260200190815260200160002060006101000a81549060ff021916905550565b610fba611282565b33604051808273ffffffffffffffffffffffffffffffffffffffff1673ffffffffffffffffffffffffffffffffffffffff166c0100000000000000000000000002815260140191505060405180910390206000191683604051808273ffffffffffffffffffffffffffffffffffffffff1673ffffffffffffffffffffffffffffffffffffffff166c0100000000000000000000000002815260140191505060405180910390206000191614806110f65750600360008473ffffffffffffffffffffffffffffffffffffffff1673ffffffffffffffffffffffffffffffffffffffff16815260200190815260200160002060003373ffffffffffffffffffffffffffffffffffffffff1673ffffffffffffffffffffffffffffffffffffffff16815260200190815260200160002060009054906101000a900460ff165b1561124357600160008473ffffffffffffffffffffffffffffffffffffffff1673ffffffffffffffffffffffffffffffffffffffff168152602001908152602001600020826040518082805190602001908083835b602083101515611170578051825260208201915060208101905060208303925061114b565b6001836020036101000a03801982511681845116808217855250505050505090500191505090815260200160405180910390208054600181600116156101000203166002900480601f0160208091040260200160405190810160405280929190818152602001828054600181600116156101000203166002900480156112375780601f1061120c57610100808354040283529160200191611237565b820191906000526020600020905b81548152906001019060200180831161121a57829003601f168201915b5050505050905061127c565b6040805190810160405280600c81526020017f554e415554484f52495a4544000000000000000000000000000000000000000081525090505b92915050565b602060405190810160405280600081525090565b828054600181600116156101000203166002900490600052602060002090601f016020900481019282601f106112d757805160ff1916838001178555611305565b82800160010185558215611305579182015b828111156113045782518255916020019190600101906112e9565b5b5090506113129190611316565b5090565b61133891905b8082111561133457600081600090555060010161131c565b5090565b905600a165627a7a723058207565c61c51918bd9587a36c0cda2fdf734607c6772f77b65cd51809320a520700029",
  "source": "pragma solidity ^0.4.18;\n\ncontract db {\n    // owner of contract itself\n    address private owner;\n\n    /**\n      * data holds the string data for a user.\n      * The first keys are owner addresses. Values are mappings. Where keys\n      * are data categories, and values are string blobs.\n      */\n    mapping (address => mapping (string => string)) data;\n\n    /**\n      * editAccess holds grants to edit data categories.\n      * The first keys are owner addresses. Values are mappings. Where keys\n      * are editor addresses and values are mappings. Where keys are categories,\n      * and values are booleans.\n      *\n      * If an address and category have a true boolean value, then the address\n      * can edit to that category\n      */\n    mapping (address => mapping(address => mapping (string => bool))) editAccess;\n\n    /**\n      * viewAccess holds grants for other addresses to view all data categories.\n      * The keys are data owner addresses and values are mappings. The second\n      * keys are viewer addresses\n      *\n      * If an address has a true boolean value, then the address\n      * can view to that category\n      */\n    mapping (address => mapping (address => bool)) viewAccess;\n\n    // db is the constructor\n    function db() public {\n        // Save owner for kill method\n        owner = msg.sender;\n    }\n\n    // deletes the contract\n    function kill() public {\n        // Ensure owner is calling\n        require(keccak256(msg.sender) == keccak256(owner));\n\n        // Kill\n        selfdestruct(owner);\n    }\n\n    /**\n      * canView determines if the message sender can view the specified\n      * address's information.\n      * @param datOwner Address of data owner\n      * @param viewer Address of data viewer\n      * @return bool indicating if the message sender has view access\n      */\n    function canView(address datOwner, address viewer) public view returns (bool) {\n        // Check if owner\n        // @log datOwner\n        // @log viewer\n        if (keccak256(datOwner) == keccak256(viewer)) {\n            return true;\n        }\n\n        // Check viewAccess var\n        if (viewAccess[datOwner][viewer]) {\n            return true;\n        }\n\n        // Otherwise no access\n        return false;\n    }\n\n    /**\n      * canEdit determines if the message sender can edit an address's data for\n      * a specified category.\n      * @param datOwner Address of data owner\n      * @param editor Address of data editor\n      * @param category Data category to check edit access to\n      * @return bool indicating if the message sender has edit access\n      */\n    function canEdit(address datOwner, address editor, string category) public view returns (bool) {\n        // Check if owner\n        if (keccak256(datOwner) == keccak256(editor)) {\n            return true;\n        }\n\n        // Check editAccess var\n        if (editAccess[datOwner][editor][category]) {\n            return true;\n        }\n\n        // Otherwise no access\n        return false;\n    }\n\n    /**\n      * grantView gives view access to the message sender's data\n      * @param addr Address to grant view access to\n      */\n    function grantView(address addr) public {\n        viewAccess[msg.sender][addr] = true;\n    }\n\n    /**\n      * revokeView removes view access to the message sender's data\n      * @param addr Address to remove view access from\n      */\n    function revokeView(address addr) public {\n        delete viewAccess[msg.sender][addr];\n    }\n\n    /**\n      * grantEdit gives edit access to the message sender's data\n      * @param addr Address to grant edit access to\n      * @param category string Data category to grant edit access to\n      */\n    function grantEdit(address addr, string category) public {\n        editAccess[msg.sender][addr][category] = true;\n    }\n\n    /**\n      * revokeEdit removes edit access to the message sender's data\n      * @param addr Address to remove edit access from\n      * @param category Data category to remove edit access from\n      */\n    function revokeEdit(address addr, string category) public {\n        delete editAccess[msg.sender][addr][category];\n    }\n\n    /**\n      * get retrieves information for the specified address and category.\n      * @param addr Address to get data for\n      * @param category Data category to retrieve data for\n      * @return string Blob of data\n      */\n    function get(address addr, string category) public view returns (string) {\n        if (keccak256(addr) == keccak256( msg.sender) || viewAccess[addr][ msg.sender]) {\n            return data[addr][category];\n        } else {\n            return \"UNAUTHORIZED\";\n        }\n    }\n\n    /**\n      * set sets a data category's value\n      * @param addr Address to edit data for\n      * @param category Data category to set\n      * @param blob String data blob to store\n      */\n    function set(address addr, string category, string blob) public returns (string) {\n        if (keccak256(addr) == keccak256(msg.sender) || editAccess[addr][msg.sender][category]) {\n            data[msg.sender][category] = blob;\n            return \"SUCCESS\";\n        } else {\n            return \"UNAUTHORIZED\";\n        }\n    }\n}\n",
  "sourcePath": "C:\\Users\\rudyt\\Documents\\Github\\Seshat\\contracts\\db.sol",
  "compiler": {
    "name": "solc",
    "version": "0.4.18+commit.9cf6e910.Emscripten.clang"
  },
  "schemaVersion": "1.0.1",
  "updatedAt": "2018-01-21T09:52:17.366Z"
}