{
  "contractName": "db",
  "abi": [
    {
      "constant": false,
      "inputs": [
        {
          "name": "str",
          "type": "string"
        }
      ],
      "name": "set",
      "outputs": [],
      "payable": false,
      "stateMutability": "nonpayable",
      "type": "function"
    },
    {
      "constant": false,
      "inputs": [
        {
          "name": "addr",
          "type": "address"
        }
      ],
      "name": "get",
      "outputs": [
        {
          "name": "",
          "type": "string"
        }
      ],
      "payable": false,
      "stateMutability": "nonpayable",
      "type": "function"
    },
    {
      "inputs": [],
      "payable": false,
      "stateMutability": "nonpayable",
      "type": "constructor"
    }
  ],
  "bytecode": "0x6060604052341561000f57600080fd5b336000806101000a81548173ffffffffffffffffffffffffffffffffffffffff021916908373ffffffffffffffffffffffffffffffffffffffff1602179055506105b38061005e6000396000f30060606040526004361061004c576000357c0100000000000000000000000000000000000000000000000000000000900463ffffffff1680634ed3885e14610051578063c2bc2efc146100ae575b600080fd5b341561005c57600080fd5b6100ac600480803590602001908201803590602001908080601f01602080910402602001604051908101604052809392919081815260200183838082843782019150505050505091905050610160565b005b34156100b957600080fd5b6100e5600480803573ffffffffffffffffffffffffffffffffffffffff169060200190919050506101b7565b6040518080602001828103825283818151815260200191508051906020019080838360005b8381101561012557808201518184015260208101905061010a565b50505050905090810190601f1680156101525780820380516001836020036101000a031916815260200191505b509250505060405180910390f35b80600160003373ffffffffffffffffffffffffffffffffffffffff1673ffffffffffffffffffffffffffffffffffffffff16815260200190815260200160002090805190602001906101b39291906104ce565b5050565b6101bf61054e565b60003373ffffffffffffffffffffffffffffffffffffffff168373ffffffffffffffffffffffffffffffffffffffff1614156102d457600160008473ffffffffffffffffffffffffffffffffffffffff1673ffffffffffffffffffffffffffffffffffffffff1681526020019081526020016000208054600181600116156101000203166002900480601f0160208091040260200160405190810160405280929190818152602001828054600181600116156101000203166002900480156102c85780601f1061029d576101008083540402835291602001916102c8565b820191906000526020600020905b8154815290600101906020018083116102ab57829003601f168201915b505050505091506104c8565b600090505b600260008473ffffffffffffffffffffffffffffffffffffffff1673ffffffffffffffffffffffffffffffffffffffff168152602001908152602001600020805490508110156104ba573373ffffffffffffffffffffffffffffffffffffffff16600260008573ffffffffffffffffffffffffffffffffffffffff1673ffffffffffffffffffffffffffffffffffffffff1681526020019081526020016000208281548110151561038657fe5b906000526020600020900160009054906101000a900473ffffffffffffffffffffffffffffffffffffffff1673ffffffffffffffffffffffffffffffffffffffff1614156104ad57600160008473ffffffffffffffffffffffffffffffffffffffff1673ffffffffffffffffffffffffffffffffffffffff1681526020019081526020016000208054600181600116156101000203166002900480601f0160208091040260200160405190810160405280929190818152602001828054600181600116156101000203166002900480156104a15780601f10610476576101008083540402835291602001916104a1565b820191906000526020600020905b81548152906001019060200180831161048457829003601f168201915b505050505091506104c8565b80806001019150506102d9565b600015156104c757600080fd5b5b50919050565b828054600181600116156101000203166002900490600052602060002090601f016020900481019282601f1061050f57805160ff191683800117855561053d565b8280016001018555821561053d579182015b8281111561053c578251825591602001919060010190610521565b5b50905061054a9190610562565b5090565b602060405190810160405280600081525090565b61058491905b80821115610580576000816000905550600101610568565b5090565b905600a165627a7a72305820a8eadfb1832467f9f4f52298663ca535c50f7ffdabecf4ad7ee0175447dbd1a00029",
  "source": "pragma solidity ^0.4.18;\n\ncontract db {\n    // owner of contract itself\n    address private owner;\n\n    // data holds the string data for a user\n    mapping (address => string) data;\n\n    // access holds access grants to data\n    mapping (address => address[]) access;\n\n    // db is the constructor\n    function db() {\n        owner = msg.sender;\n    }\n\n    // get retrieves information for the specified address\n    function get(address addr) returns (string) {\n        // If requesting own information\n        if (addr == msg.sender) {\n            return data[addr];\n        }\n\n        // Otherwise check if user has given them share access\n        for (uint i = 0; i < access[addr].length; i++) {\n            // Check if given access\n            if (access[addr][i] == msg.sender) {\n                // Return info\n                return data[addr];\n            }\n        }\n\n        // If not found in access list, don't have permissions\n        require(false);\n    }\n\n    // set sets a data item\n    function set(string str) {\n        // Set\n        data[msg.sender] = str;\n    }\n}\n",
  "sourcePath": "C:\\Users\\rudyt\\Documents\\Github\\Seshat\\contracts\\db.sol",
  "compiler": {
    "name": "solc",
    "version": "0.4.18+commit.9cf6e910.Emscripten.clang"
  },
  "schemaVersion": "1.0.1",
  "updatedAt": "2018-01-21T01:32:15.395Z"
}