{
  "contractName": "db",
  "abi": [
    {
      "constant": false,
      "inputs": [],
      "name": "kill",
      "outputs": [],
      "payable": false,
      "stateMutability": "nonpayable",
      "type": "function"
    },
    {
      "constant": true,
      "inputs": [
        {
          "name": "datOwner",
          "type": "address"
        },
        {
          "name": "viewer",
          "type": "address"
        }
      ],
      "name": "canView",
      "outputs": [
        {
          "name": "",
          "type": "bool"
        }
      ],
      "payable": false,
      "stateMutability": "view",
      "type": "function"
    },
    {
      "constant": false,
      "inputs": [
        {
          "name": "addr",
          "type": "address"
        }
      ],
      "name": "grantView",
      "outputs": [],
      "payable": false,
      "stateMutability": "nonpayable",
      "type": "function"
    },
    {
      "constant": false,
      "inputs": [
        {
          "name": "addr",
          "type": "address"
        },
        {
          "name": "category",
          "type": "string"
        },
        {
          "name": "blob",
          "type": "string"
        }
      ],
      "name": "set",
      "outputs": [],
      "payable": false,
      "stateMutability": "nonpayable",
      "type": "function"
    },
    {
      "constant": false,
      "inputs": [
        {
          "name": "addr",
          "type": "address"
        }
      ],
      "name": "revokeView",
      "outputs": [],
      "payable": false,
      "stateMutability": "nonpayable",
      "type": "function"
    },
    {
      "constant": true,
      "inputs": [
        {
          "name": "addr",
          "type": "address"
        },
        {
          "name": "category",
          "type": "string"
        }
      ],
      "name": "get",
      "outputs": [
        {
          "name": "",
          "type": "string"
        }
      ],
      "payable": false,
      "stateMutability": "view",
      "type": "function"
    },
    {
      "inputs": [],
      "payable": false,
      "stateMutability": "nonpayable",
      "type": "constructor"
    }
  ],
  "bytecode": "0x6060604052341561000f57600080fd5b336000806101000a81548173ffffffffffffffffffffffffffffffffffffffff021916908373ffffffffffffffffffffffffffffffffffffffff1602179055506108d38061005e6000396000f300606060405260043610610078576000357c0100000000000000000000000000000000000000000000000000000000900463ffffffff16806341c0e1b51461007d57806395e1a1d5146100925780639b79d33114610102578063d2c0e0321461013b578063f1f03fda146101fa578063fc2525ab14610233575b600080fd5b341561008857600080fd5b610090610328565b005b341561009d57600080fd5b6100e8600480803573ffffffffffffffffffffffffffffffffffffffff1690602001909190803573ffffffffffffffffffffffffffffffffffffffff169060200190919050506103bd565b604051808215151515815260200191505060405180910390f35b341561010d57600080fd5b610139600480803573ffffffffffffffffffffffffffffffffffffffff1690602001909190505061049f565b005b341561014657600080fd5b6101f8600480803573ffffffffffffffffffffffffffffffffffffffff1690602001909190803590602001908201803590602001908080601f0160208091040260200160405190810160405280939291908181526020018383808284378201915050505050509190803590602001908201803590602001908080601f01602080910402602001604051908101604052809392919081815260200183838082843782019150505050505091905050610537565b005b341561020557600080fd5b610231600480803573ffffffffffffffffffffffffffffffffffffffff169060200190919050506105f9565b005b341561023e57600080fd5b6102ad600480803573ffffffffffffffffffffffffffffffffffffffff1690602001909190803590602001908201803590602001908080601f01602080910402602001604051908101604052809392919081815260200183838082843782019150505050505091905050610688565b6040518080602001828103825283818151815260200191508051906020019080838360005b838110156102ed5780820151818401526020810190506102d2565b50505050905090810190601f16801561031a5780820380516001836020036101000a031916815260200191505b509250505060405180910390f35b6000809054906101000a900473ffffffffffffffffffffffffffffffffffffffff1673ffffffffffffffffffffffffffffffffffffffff163373ffffffffffffffffffffffffffffffffffffffff1614151561038357600080fd5b6000809054906101000a900473ffffffffffffffffffffffffffffffffffffffff1673ffffffffffffffffffffffffffffffffffffffff16ff5b60008173ffffffffffffffffffffffffffffffffffffffff168373ffffffffffffffffffffffffffffffffffffffff1614156103fc5760019050610499565b600260008473ffffffffffffffffffffffffffffffffffffffff1673ffffffffffffffffffffffffffffffffffffffff16815260200190815260200160002060008373ffffffffffffffffffffffffffffffffffffffff1673ffffffffffffffffffffffffffffffffffffffff16815260200190815260200160002060009054906101000a900460ff16156104945760019050610499565b600090505b92915050565b6001600260003373ffffffffffffffffffffffffffffffffffffffff1673ffffffffffffffffffffffffffffffffffffffff16815260200190815260200160002060008373ffffffffffffffffffffffffffffffffffffffff1673ffffffffffffffffffffffffffffffffffffffff16815260200190815260200160002060006101000a81548160ff02191690831515021790555050565b80600160008573ffffffffffffffffffffffffffffffffffffffff1673ffffffffffffffffffffffffffffffffffffffff168152602001908152602001600020836040518082805190602001908083835b6020831015156105ad5780518252602082019150602081019050602083039250610588565b6001836020036101000a038019825116818451168082178552505050505050905001915050908152602001604051809103902090805190602001906105f39291906107ee565b50505050565b600260003373ffffffffffffffffffffffffffffffffffffffff1673ffffffffffffffffffffffffffffffffffffffff16815260200190815260200160002060008273ffffffffffffffffffffffffffffffffffffffff1673ffffffffffffffffffffffffffffffffffffffff16815260200190815260200160002060006101000a81549060ff021916905550565b61069061086e565b61069a83336103bd565b15156106a557600080fd5b600160008473ffffffffffffffffffffffffffffffffffffffff1673ffffffffffffffffffffffffffffffffffffffff168152602001908152602001600020826040518082805190602001908083835b60208310151561071a57805182526020820191506020810190506020830392506106f5565b6001836020036101000a03801982511681845116808217855250505050505090500191505090815260200160405180910390208054600181600116156101000203166002900480601f0160208091040260200160405190810160405280929190818152602001828054600181600116156101000203166002900480156107e15780601f106107b6576101008083540402835291602001916107e1565b820191906000526020600020905b8154815290600101906020018083116107c457829003601f168201915b5050505050905092915050565b828054600181600116156101000203166002900490600052602060002090601f016020900481019282601f1061082f57805160ff191683800117855561085d565b8280016001018555821561085d579182015b8281111561085c578251825591602001919060010190610841565b5b50905061086a9190610882565b5090565b602060405190810160405280600081525090565b6108a491905b808211156108a0576000816000905550600101610888565b5090565b905600a165627a7a7230582068bba57e4fd5edc9346949c364164953edfcc1b3ae36f0d5c028ee5edefccf480029",
  "source": "pragma solidity ^0.4.18;\n\ncontract db {\n    // owner of contract itself\n    address private owner;\n\n    /**\n      * data holds the string data for a user.\n      * The first keys are owner addresses. Values are mappings. Where keys\n      * are data categories, and values are string blobs.\n      */\n    mapping (address => mapping (string => string)) data;\n\n    /**\n      * editAccess holds grants to edit data categories.\n      * The first keys are owner addresses. Values are mappings. Where keys\n      * are editor addresses and values are mappings. Where keys are categories,\n      * and values are booleans.\n      *\n      * If an address and category have a true boolean value, then the address\n      * can edit to that category\n      */\n    //mapping (address => mapping(address => mapping (string => bool))) editAccess;\n\n    /**\n      * viewAccess holds grants for other addresses to view all data categories.\n      * The keys are data owner addresses and values are mappings. The second\n      * keys are viewer addresses\n      *\n      * If an address has a true boolean value, then the address\n      * can view to that category\n      */\n    mapping (address => mapping (address => bool)) viewAccess;\n\n    // db is the constructor\n    function db() public {\n        // Save owner for kill method\n        owner = msg.sender;\n    }\n\n    // deletes the contract\n    function kill() public {\n        // Ensure owner is calling\n        require(msg.sender == owner);\n\n        // Kill\n        selfdestruct(owner);\n    }\n\n    /**\n      * canView determines if the message sender can view the specified\n      * addresss information.\n      * @param datOwner Address of data owner\n      * @param viewer Address of data viewer\n      * @return bool indicating if the message sender has view access\n      */\n    function canView(address datOwner, address viewer) public view returns (bool) {\n        // Check if owner\n        if (datOwner == viewer) {\n            return true;\n        }\n\n        // Check viewAccess var\n        if (viewAccess[datOwner][viewer]) {\n            return true;\n        }\n\n        // Otherwise no access\n        return false;\n    }\n\n    /**\n      * canEdit determines if the message sender can edit an address's data for\n      * a specified category.\n      * @param datOwner Address of data owner\n      * @param editor Address of data editor\n      * @param category Data category to check edit access to\n      * @return bool indicating if the message sender has edit access\n      */\n     /*\n    function canEdit(address datOwner, address editor, string category) public view returns (bool) {\n        // Check if owner\n        if (datOwner == editor) {\n            return true;\n        }\n\n        // Check editAccess var\n        if (editAccess[datOwner][editor][category]) {\n            return true;\n        }\n\n        // Otherwise no access\n        return false;\n    }\n    */\n\n    /**\n      * grantView gives view access to the message sender's data\n      * @param addr Address to grant view access to\n      */\n    function grantView(address addr) public {\n        viewAccess[msg.sender][addr] = true;\n    }\n\n    /**\n      * revokeView removes view access to the message sender's data\n      * @param addr Address to remove view access from\n      */\n    function revokeView(address addr) public {\n        delete viewAccess[msg.sender][addr];\n    }\n\n    /**\n      * grantEdit gives edit access to the message sender's data\n      * @param addr Address to grant edit access to\n      * @param category string Data category to grant edit access to\n      */\n     /*\n    function grantEdit(address addr, string category) public {\n        editAccess[msg.sender][addr][category] = true;\n    }\n    */\n\n    /**\n      * revokeEdit removes edit access to the message sender's data\n      * @param addr Address to remove edit access from\n      * @param category Data category to remove edit access from\n      */\n     /*\n    function revokeEdit(address addr, string category) public {\n        delete editAccess[msg.sender][addr][category];\n    }\n    */\n\n    /**\n      * get retrieves information for the specified address and category.\n      * @param addr Address to get data for\n      * @param category Category to get data for\n      * @return string Blob of data\n      */\n    function get(address addr, string category) public view returns (string) {\n        require(canView(addr, msg.sender));\n\n        // Return data\n        return data[addr][category];\n    }\n\n    /**\n      * set sets a data category's value\n      * @param addr Address to edit data for\n      * @param category Category to save data for\n      * @param blob String data blob to store\n      */\n    function set(address addr, string category, string blob) public {\n        // Set\n        data[addr][category] = blob;\n    }\n}\n",
  "sourcePath": "/home/noah/Documents/workspace/blockchain/Seshat/contracts/db.sol",
  "compiler": {
    "name": "solc",
    "version": "0.4.18+commit.9cf6e910.Emscripten.clang"
  },
  "schemaVersion": "1.0.1",
  "updatedAt": "2018-01-21T11:12:04.806Z"
}