{
  "contractName": "db",
  "abi": [
    {
      "constant": false,
      "inputs": [
        {
          "name": "addr",
          "type": "address"
        },
        {
          "name": "category",
          "type": "string"
        }
      ],
      "name": "grantEdit",
      "outputs": [],
      "payable": false,
      "stateMutability": "nonpayable",
      "type": "function"
    },
    {
      "constant": false,
      "inputs": [],
      "name": "kill",
      "outputs": [],
      "payable": false,
      "stateMutability": "nonpayable",
      "type": "function"
    },
    {
      "constant": true,
      "inputs": [
        {
          "name": "addr",
          "type": "address"
        }
      ],
      "name": "canView",
      "outputs": [
        {
          "name": "",
          "type": "bool"
        }
      ],
      "payable": false,
      "stateMutability": "view",
      "type": "function"
    },
    {
      "constant": false,
      "inputs": [
        {
          "name": "addr",
          "type": "address"
        },
        {
          "name": "category",
          "type": "string"
        }
      ],
      "name": "revokeEdit",
      "outputs": [],
      "payable": false,
      "stateMutability": "nonpayable",
      "type": "function"
    },
    {
      "constant": false,
      "inputs": [
        {
          "name": "addr",
          "type": "address"
        }
      ],
      "name": "grantView",
      "outputs": [],
      "payable": false,
      "stateMutability": "nonpayable",
      "type": "function"
    },
    {
      "constant": true,
      "inputs": [
        {
          "name": "addr",
          "type": "address"
        },
        {
          "name": "category",
          "type": "string"
        }
      ],
      "name": "canEdit",
      "outputs": [
        {
          "name": "",
          "type": "bool"
        }
      ],
      "payable": false,
      "stateMutability": "view",
      "type": "function"
    },
    {
      "constant": false,
      "inputs": [
        {
          "name": "addr",
          "type": "address"
        },
        {
          "name": "category",
          "type": "string"
        },
        {
          "name": "blob",
          "type": "string"
        }
      ],
      "name": "set",
      "outputs": [],
      "payable": false,
      "stateMutability": "nonpayable",
      "type": "function"
    },
    {
      "constant": false,
      "inputs": [
        {
          "name": "addr",
          "type": "address"
        }
      ],
      "name": "revokeView",
      "outputs": [],
      "payable": false,
      "stateMutability": "nonpayable",
      "type": "function"
    },
    {
      "constant": true,
      "inputs": [
        {
          "name": "addr",
          "type": "address"
        },
        {
          "name": "category",
          "type": "string"
        }
      ],
      "name": "get",
      "outputs": [
        {
          "name": "",
          "type": "string"
        }
      ],
      "payable": false,
      "stateMutability": "view",
      "type": "function"
    },
    {
      "inputs": [],
      "payable": false,
      "stateMutability": "nonpayable",
      "type": "constructor"
    }
  ],
  "bytecode": "0x6060604052341561000f57600080fd5b336000806101000a81548173ffffffffffffffffffffffffffffffffffffffff021916908373ffffffffffffffffffffffffffffffffffffffff160217905550610c4c8061005e6000396000f300606060405260043610610099576000357c0100000000000000000000000000000000000000000000000000000000900463ffffffff168063020d3d051461009e57806341c0e1b51461011a57806350ef672d1461012f5780636b583d22146101805780639b79d331146101fc578063c8e7548f14610235578063d2c0e032146102c9578063f1f03fda14610388578063fc2525ab146103c1575b600080fd5b34156100a957600080fd5b610118600480803573ffffffffffffffffffffffffffffffffffffffff1690602001909190803590602001908201803590602001908080601f016020809104026020016040519081016040528093929190818152602001838380828437820191505050505050919050506104b6565b005b341561012557600080fd5b61012d61057b565b005b341561013a57600080fd5b610166600480803573ffffffffffffffffffffffffffffffffffffffff16906020019091905050610610565b604051808215151515815260200191505060405180910390f35b341561018b57600080fd5b6101fa600480803573ffffffffffffffffffffffffffffffffffffffff1690602001909190803590602001908201803590602001908080601f016020809104026020016040519081016040528093929190818152602001838380828437820191505050505050919050506106b4565b005b341561020757600080fd5b610233600480803573ffffffffffffffffffffffffffffffffffffffff16906020019091905050610770565b005b341561024057600080fd5b6102af600480803573ffffffffffffffffffffffffffffffffffffffff1690602001909190803590602001908201803590602001908080601f016020809104026020016040519081016040528093929190818152602001838380828437820191505050505050919050506107cb565b604051808215151515815260200191505060405180910390f35b34156102d457600080fd5b610386600480803573ffffffffffffffffffffffffffffffffffffffff1690602001909190803590602001908201803590602001908080601f0160208091040260200160405190810160405280939291908181526020018383808284378201915050505050509190803590602001908201803590602001908080601f016020809104026020016040519081016040528093929190818152602001838380828437820191505050505050919050506108d9565b005b341561039357600080fd5b6103bf600480803573ffffffffffffffffffffffffffffffffffffffff169060200190919050506109b0565b005b34156103cc57600080fd5b61043b600480803573ffffffffffffffffffffffffffffffffffffffff1690602001909190803590602001908201803590602001908080601f01602080910402602001604051908101604052809392919081815260200183838082843782019150505050505091905050610a02565b6040518080602001828103825283818151815260200191508051906020019080838360005b8381101561047b578082015181840152602081019050610460565b50505050905090810190601f1680156104a85780820380516001836020036101000a031916815260200191505b509250505060405180910390f35b6001600260008473ffffffffffffffffffffffffffffffffffffffff1673ffffffffffffffffffffffffffffffffffffffff168152602001908152602001600020826040518082805190602001908083835b60208310151561052d5780518252602082019150602081019050602083039250610508565b6001836020036101000a038019825116818451168082178552505050505050905001915050908152602001604051809103902060006101000a81548160ff0219169083151502179055505050565b6000809054906101000a900473ffffffffffffffffffffffffffffffffffffffff1673ffffffffffffffffffffffffffffffffffffffff163373ffffffffffffffffffffffffffffffffffffffff161415156105d657600080fd5b6000809054906101000a900473ffffffffffffffffffffffffffffffffffffffff1673ffffffffffffffffffffffffffffffffffffffff16ff5b60008173ffffffffffffffffffffffffffffffffffffffff163373ffffffffffffffffffffffffffffffffffffffff16141561064f57600190506106af565b600360008373ffffffffffffffffffffffffffffffffffffffff1673ffffffffffffffffffffffffffffffffffffffff16815260200190815260200160002060009054906101000a900460ff16156106aa57600190506106af565b600090505b919050565b600260008373ffffffffffffffffffffffffffffffffffffffff1673ffffffffffffffffffffffffffffffffffffffff168152602001908152602001600020816040518082805190602001908083835b6020831015156107295780518252602082019150602081019050602083039250610704565b6001836020036101000a038019825116818451168082178552505050505050905001915050908152602001604051809103902060006101000a81549060ff02191690555050565b6001600360008373ffffffffffffffffffffffffffffffffffffffff1673ffffffffffffffffffffffffffffffffffffffff16815260200190815260200160002060006101000a81548160ff02191690831515021790555050565b60008273ffffffffffffffffffffffffffffffffffffffff163373ffffffffffffffffffffffffffffffffffffffff16141561080a57600190506108d3565b600260008473ffffffffffffffffffffffffffffffffffffffff1673ffffffffffffffffffffffffffffffffffffffff168152602001908152602001600020826040518082805190602001908083835b60208310151561087f578051825260208201915060208101905060208303925061085a565b6001836020036101000a038019825116818451168082178552505050505050905001915050908152602001604051809103902060009054906101000a900460ff16156108ce57600190506108d3565b600090505b92915050565b6108e383836107cb565b15156108ee57600080fd5b80600160003373ffffffffffffffffffffffffffffffffffffffff1673ffffffffffffffffffffffffffffffffffffffff168152602001908152602001600020836040518082805190602001908083835b602083101515610964578051825260208201915060208101905060208303925061093f565b6001836020036101000a038019825116818451168082178552505050505050905001915050908152602001604051809103902090805190602001906109aa929190610b67565b50505050565b600360008273ffffffffffffffffffffffffffffffffffffffff1673ffffffffffffffffffffffffffffffffffffffff16815260200190815260200160002060006101000a81549060ff021916905550565b610a0a610be7565b610a1383610610565b1515610a1e57600080fd5b600160008473ffffffffffffffffffffffffffffffffffffffff1673ffffffffffffffffffffffffffffffffffffffff168152602001908152602001600020826040518082805190602001908083835b602083101515610a935780518252602082019150602081019050602083039250610a6e565b6001836020036101000a03801982511681845116808217855250505050505090500191505090815260200160405180910390208054600181600116156101000203166002900480601f016020809104026020016040519081016040528092919081815260200182805460018160011615610100020316600290048015610b5a5780601f10610b2f57610100808354040283529160200191610b5a565b820191906000526020600020905b815481529060010190602001808311610b3d57829003601f168201915b5050505050905092915050565b828054600181600116156101000203166002900490600052602060002090601f016020900481019282601f10610ba857805160ff1916838001178555610bd6565b82800160010185558215610bd6579182015b82811115610bd5578251825591602001919060010190610bba565b5b509050610be39190610bfb565b5090565b602060405190810160405280600081525090565b610c1d91905b80821115610c19576000816000905550600101610c01565b5090565b905600a165627a7a7230582090fe4a9680f517301fde5a174ed8a1197d0144da451dc1b12133cba54b42fd1f0029",
  "source": "pragma solidity ^0.4.18;\n\ncontract db {\n    // owner of contract itself\n    address private owner;\n\n    /**\n      * data holds the string data for a user.\n      * The first keys are owner addresses. Values are mappings. Where keys\n      * are data categories, and values are string blobs.\n      */\n    mapping (address => mapping (string => string)) data;\n\n    /**\n      * editAccess holds grants to edit data categories.\n      * The first keys are user addresses. Values are mappings. Where keys\n      * are categories, and values are booleans.\n      *\n      * If an address and category have a true boolean value, then the address\n      * can edit to that category\n      */\n    mapping (address => mapping (string => bool)) editAccess;\n\n    /**\n      * viewAccess holds grants for other addresses to view all data categories.\n      * The keys are user addresses and values are booleans.\n      *\n      * If an address has a true boolean value, then the address\n      * can view to that category\n      */\n    mapping (address => bool) viewAccess;\n\n    // db is the constructor\n    function db() public {\n        // Save owner for kill method\n        owner = msg.sender;\n    }\n\n    // deletes the contract\n    function kill() public {\n        // Ensure owner is calling\n        require(msg.sender == owner);\n\n        // Kill\n        selfdestruct(owner);\n    }\n\n    /**\n      * canView determines if the message sender can view the specified\n      * address's information.\n      * @param addr Address to check view access to\n      * @return bool indicating if the message sender has view access\n      */\n    function canView(address addr) public view returns (bool) {\n        // Check if owner\n        if (msg.sender == addr) {\n            return true;\n        }\n\n        // Check viewAccess var\n        if (viewAccess[addr]) {\n            return true;\n        }\n\n        // Otherwise no access\n        return false;\n    }\n\n    /**\n      * canEdit determines if the message sender can edit an address's data for\n      * a specified category.\n      * @param addr Address to check edit access to\n      * @param category Data category to check edit access to\n      * @return bool indicating if the message sender has edit access\n      */\n    function canEdit(address addr, string category) public view returns (bool) {\n        // Check if owner\n        if (msg.sender == addr) {\n            return true;\n        }\n\n        // Check editAccess var\n        if (editAccess[addr][category]) {\n            return true;\n        }\n\n        // Otherwise no access\n        return false;\n    }\n\n    /**\n      * grantView gives view access to the message sender's data\n      * @param addr Address to grant view access to\n      */\n    function grantView(address addr) public {\n        viewAccess[addr] = true;\n    }\n\n    /**\n      * revokeView removes view access to the message sender's data\n      * @param addr Address to remove view access from\n      */\n    function revokeView(address addr) public {\n        delete viewAccess[addr];\n    }\n\n    /**\n      * grantEdit gives edit access to the message sender's data\n      * @param addr Address to grant edit access to\n      * @param category string Data category to grant edit access to\n      */\n    function grantEdit(address addr, string category) public {\n        editAccess[addr][category] = true;\n    }\n\n    /**\n      * revokeEdit removes edit access to the message sender's data\n      * @param addr Address to remove edit access from\n      * @param category Data category to remove edit access from\n      */\n    function revokeEdit(address addr, string category) public {\n        delete editAccess[addr][category];\n    }\n\n    /**\n      * get retrieves information for the specified address and category.\n      * @param addr Address to get data for\n      * @param category Data category to retrieve data for\n      * @return string Blob of data\n      */\n    function get(address addr, string category) public view returns (string) {\n        // Ensure owner or person with access\n        require(canView(addr));\n\n        // Return data\n        return data[addr][category];\n    }\n\n    /**\n      * set sets a data category's value\n      * @param addr Address to edit data for\n      * @param category Data category to set\n      * @param blob String data blob to store\n      */\n    function set(address addr, string category, string blob) public {\n        // Ensure message sender can edit address's information\n        require(canEdit(addr, category));\n\n        // Set\n        data[msg.sender][category] = blob;\n    }\n}\n",
  "sourcePath": "/home/noah/Documents/workspace/blockchain/Seshat/contracts/db.sol",
  "compiler": {
    "name": "solc",
    "version": "0.4.18+commit.9cf6e910.Emscripten.clang"
  },
  "schemaVersion": "1.0.1",
  "updatedAt": "2018-01-21T07:19:42.336Z"
}